:100000000C9464000C948C000C948C000C948C0068
:100010000C948C000C948C000C948C000C948C0030
:100020000C948C000C948C000C948C000C948C0020
:100030000C948C000C948C000C948C000C948C0010
:100040000C9435220C948C000C945A240C948C0043
:100050000C948C000C948C000C948C000C948C00F0
:100060000C943B1A0C948C00000000002400270024
:100070002A0000000000250028002B0000000000DE
:1000800023002600290004040404040404040202DA
:100090000202020203030303030301020408102007
:1000A0004080010204081020010204081020000012
:1000B0000007000201000003040600000000000029
:1000C0000000ED004019562511241FBECFEFD8E0E7
:1000D000DEBFCDBF13E0A0E0B1E0E0EFF4E502C089
:1000E00005900D92AA32B107D9F715E0AAE2B3E064
:1000F00001C01D92AD37B107E1F710E0C8ECD0E0C8
:1001000004C02297FE010E94722AC23CD107C9F79F
:100110000E9490250C94762A0C940000482F6AE0E7
:100120000E94002A282F30E084E0220F331F8A9596
:10013000E1F7842F0E94002A892F820F08951F93D0
:10014000CF93DF93EC01CB0160912A0370912B03D5
:100150007B836A83998388838CED94E00E94291DB8
:100160008A3A01F56A817B816F5F7F4F8CED94E065
:100170000E94291D182F6A817B816E5F7F4F8CED55
:1001800094E00E94291D1883898380912A0390910D
:100190002B03039690932B0380932A03DF91CF9137
:1001A0001F9108956A817B818CED94E04AEA0E9458
:1001B000301D488119816A817B816F5F7F4F8CED93
:1001C00094E00E94301D6A817B816E5F7F4F8CEDD1
:1001D00094E0412F0E94301DC5CFCF92EF920F9334
:1001E0001F938CE293E068E047E029E004E050E1EF
:1001F000E52E32E0C32E0E94F01800E413E0C8019F
:1002000061E10E94F81F83E593E0B8010E943C1D64
:1002100082E793E06CE040E00E940C1D85E793E0EC
:100220006DE040E00E940C1D88E793E06EE040E046
:100230000E940C1D8BE793E06FE040E00E940C1DD4
:1002400085E893E064EA71E00E949F0089E893E00A
:1002500060ED72E00E949F008DE893E060E070E046
:100260000E949F0081E993E064E670E00E949F0095
:1002700085E993E06CE370E00E949F0089E993E0D8
:1002800064EA71E00E949F008DE993E060ED72E006
:100290000E949F0081EA93E060E070E00E949F006E
:1002A00085EA93E064E670E00E949F0089EA93E0AB
:1002B0006CE370E00E949F008DEA93E064EA71E0D5
:1002C0000E949F0081EB93E060ED72E00E949F002E
:1002D00085EB93E060E070E00E949F0089EB93E083
:1002E00064E670E00E949F008DEB93E06CE370E0A9
:1002F0000E949F0081EC93E064EA71E00E949F00FD
:1003000085EC93E060ED72E00E949F0089EC93E041
:1003100060E070E00E949F008DEC93E064E670E086
:100320000E949F0081ED93E06CE370E00E949F00CB
:1003300085ED93E06EE670E00E949F0089ED93E00A
:1003400064E670E00E949F008DED93E060E670E04F
:100350000E949F0081EE93E062E670E00E949F00A1
:1003600085EE93E06EE170E00E949F001F910F9177
:10037000EF90CF900895DF92EF92FF920F931F932B
:100380008C01FC014081D1806CEDE62E64E0F62EFC
:10039000628173816F5F7F4FC7010E94301DF8013A
:1003A000628173816E5F7F4FC7014D2D0E94301DAA
:1003B0001F910F91FF90EF90DF9008952091ED0332
:1003C0003091EE03809185039091860328173907B9
:1003D00041F0309386032093850385E893E00E94E3
:1003E000BB012091EF033091F0038091890390913C
:1003F0008A032817390741F030938A032093890331
:1004000089E893E00E94BB012091F1033091F2034F
:1004100080918D0390918E032817390741F0309316
:100420008E0320938D038DE893E00E94BB01209101
:10043000F3033091F4038091910390919203281774
:10044000390741F0309392032093910381E993E0BF
:100450000E94BB012091F7033091F803809195032E
:10046000909196032817390741F030939603209313
:10047000950385E993E00E94BB012091FD03309133
:10048000FE038091990390919A032817390741F050
:1004900030939A032093990389E993E00E94BB016A
:1004A0002091FF033091000480919D0390919E0361
:1004B0002817390741F030939E0320939D038DE95F
:1004C00093E00E94BB0120910104309102048091CD
:1004D000A1039091A2032817390741F03093A2039A
:1004E0002093A10381EA93E00E94BB0120910304C1
:1004F000309104048091A5039091A6032817390731
:1005000041F03093A6032093A50385EA93E00E946F
:10051000BB0120910704309108048091A9039091B8
:10052000AA032817390741F03093AA032093A9039F
:1005300089EA93E00E94BB0120910D0430910E04E2
:100540008091AD039091AE032817390741F03093A5
:10055000AE032093AD038DEA93E00E94BB0120918E
:100560000F04309110048091B1039091B2032817C9
:10057000390741F03093B2032093B10381EB93E04C
:100580000E94BB0120911104309112048091B503A7
:100590009091B6032817390741F03093B6032093A2
:1005A000B50385EB93E00E94BB01209113043091C9
:1005B00014048091B9039091BA032817390741F0C8
:1005C0003093BA032093B90389EB93E00E94BB01F7
:1005D00020911704309118048091BD039091BE03BF
:1005E0002817390741F03093BE032093BD038DEBEC
:1005F00093E00E94BB0120911D0430911E04809164
:10060000C1039091C2032817390741F03093C20308
:100610002093C10381EC93E00E94BB0120911F0451
:10062000309120048091C5039091C60328173907A3
:1006300041F03093C6032093C50385EC93E00E94FC
:10064000BB0120912104309122048091C903909133
:10065000CA032817390741F03093CA032093C9030E
:1006600089EC93E00E94BB01209123043091240483
:100670008091CD039091CE032817390741F0309334
:10068000CE032093CD038DEC93E00E94BB0120911B
:100690002704309128048091D1039091D203281728
:1006A000390741F03093D2032093D10381ED93E0D9
:1006B0000E94BB010895DF93CF93CDB7DEB760975B
:1006C0000FB6F894DEBF0FBECDBFFE013196A2EF8C
:1006D000B2E090E10D9001929150E1F7E82FF0E047
:1006E000E770F070EE0FFF1FEC0FFD1F618172814C
:1006F0008CE293E00E94CE2560960FB6F894DEBFA0
:100700000FBECDBFCF91DF910895CF93DF938CE2E1
:1007100093E069E040E00E94031880916C0390919F
:100720006D038130910589F0823091051CF4892B8D
:1007300039F037C08230910569F0039791F50FC009
:100740008CE293E060E071E02AC08CE293E068E024
:1007500071E025C08CE293E060E171E020C08CE2A2
:1007600093E068E171E00E94CE2580916E03909144
:100770006F030A9734F48CE293E06DE171E00E941C
:10078000CE2560916E0370916F038CE293E04AE096
:1007900050E00E94C7268CE293E06FE171E00E9476
:1007A000CE258CE293E060E041E00E940318C5EFA3
:1007B000D3E08CE293E06DE171E00E94CE25888168
:1007C00099818A3091052CF48CE293E061E271E02A
:1007D00007C08436910534F48CE293E06DE171E05A
:1007E0000E94CE25688179818CE293E04AE050E056
:1007F0000E94C726609684E0C533D807D1F6DF9102
:10080000CF9108950F931F93CF93DF939C0160EADC
:1008100075E00E940C2A6CE370E00E940C2AEB0148
:10082000C9016CE370E00E940C2A8C01CA30D1052A
:1008300034F48CE293E06DE171E00E94CE258CE20D
:1008400093E0BE014AE050E00E94C7268CE293E0AC
:1008500064E271E00E94CE250A30110534F48CE286
:1008600093E066E271E00E94CE258CE293E0B8014D
:100870004AE050E00E94C726DF91CF911F910F916F
:1008800008958F929F92AF92BF92CF92DF92EF9294
:10089000FF920F931F938C018CE2E82E83E0F82ED9
:1008A000C70160E040E00E940318B9EECB2EB3E030
:1008B000DB2EA4E0000F111FAA95E1F74601800E80
:1008C000911EF40160817181C7010E94CE25C7018C
:1008D00065E040E00E9403180C5F1F4F5601A00E18
:1008E000B11E04501040F5018081918160E00E94AA
:1008F0000204C70168E271E00E94CE25F4018681FE
:100900009781F50120813181820F931F60E00E9461
:100910000204C70162E041E00E940318C00ED11E2C
:10092000F60160857185C7014AE050E00E94C72644
:10093000C70166E041E00E940318F40162857385F7
:10094000C7014AE050E00E94C726C7016BE041E0C2
:100950000E940318F4018685978560E00E940204D6
:100960001F910F91FF90EF90DF90CF90BF90AF90CD
:100970009F908F9008958CE293E060E040E00E94A9
:10098000031885E793E00E94F31C8823D1F081E0EF
:1009900080936B0380916C0390916D03019690930B
:1009A0006D0380936C038CE293E00E9432180E94E6
:1009B0007D22609365037093660380936703909331
:1009C000680380916C0390916D03009719F0019773
:1009D00089F517C08CE293E061E040E00E940318C3
:1009E0008CE293E06AE271E00E94CE258CE293E013
:1009F00062E041E00E9403188CE293E069E371E059
:100A000016C08CE293E062E040E00E9403188CE2A2
:100A100093E066E471E00E94CE258CE293E064E00E
:100A200041E00E9403188CE293E063E571E00E94CC
:100A3000CE25089510926D0310926C0308958AE6F6
:100A400095E00E94E824892B09F498C08AE695E095
:100A50000E9413259C018134910529F410926D03A5
:100A600010926C0324C08234910539F481E090E047
:100A700090936D0380936C032AC08334910539F4FD
:100A800082E090E090936D0380936C0330C08434D7
:100A9000910569F483E090E090936D0380936C037B
:100AA00084E190E090936F0380936E0330C025340F
:100AB000310569F483E090E090936D0380936C03BB
:100AC0008EE190E090936F0380936E032CC02634E8
:100AD000310569F483E090E090936D0380936C039B
:100AE00088E290E090936F0380936E0328C02734D0
:100AF000310569F483E090E090936D0380936C037B
:100B000082E390E090936F0380936E0328C02834B3
:100B1000310549F483E090E090936D0380936C037A
:100B20008CE390E017C02934310549F483E090E06C
:100B300090936D0380936C0386E490E00BC02A349D
:100B4000310569F483E090E090936D0380936C032A
:100B500080E590E090936F0380936E0308952B34AB
:100B6000310561F483E090E090936D0380936C0312
:100B70008AE590E090936F0380936E030895EF925F
:100B8000FF920F931F9383E593E00E942E1E83E54F
:100B900093E060E00E94781F7B018C016091D50397
:100BA0007091D603882777FD8095982F0E94CA28D8
:100BB0009B01AC01C801B7010E947A2918162CF4D8
:100BC0008FE393E062E041E016C06091D903709139
:100BD000DA03882777FD8095982F0E94CA289B0109
:100BE000AC01C801B7010E942B28882334F48FE39D
:100BF00093E062E040E00E94B61B83E593E061E091
:100C00000E94781F7B018C016091DD037091DE03EF
:100C1000882777FD8095982F0E94CA289B01AC01F8
:100C2000C801B7010E942B2888232CF48FE393E09E
:100C300063E041E016C06091E1037091E203882710
:100C400077FD8095982F0E94CA289B01AC01C801AE
:100C5000B7010E947A29181634F48FE393E063E019
:100C600040E00E94B61B1F910F91FF90EF900895F6
:100C7000CF92DF92EF92FF920F931F9323E5E22E24
:100C800023E0F22EC7010E942E1E0CE213E0C801E1
:100C900060E040E00E940318C8016CE571E00E942A
:100CA000CE25C80168E040E00E940318C70160E05B
:100CB0000E94781FAB01BC01C80122E030E00E9415
:100CC0007A27C8016FED40E050E00E94DA2695E6F1
:100CD000C92E91E0D92EC801B6010E94CE25C701C8
:100CE00060E00E94781FC80160E041E00E940318A4
:100CF000C80167E671E00E94CE25C80168E041E0C6
:100D00000E940318C70161E00E94781FAB01BC017B
:100D1000C80122E030E00E947A27C8016FED40E070
:100D200050E00E94DA26C801B6010E94CE25C70114
:100D300061E00E94781F1F910F91FF90EF90DF906C
:100D4000CF900895CF93DF93EC010E94F31C88238A
:100D500019F08091E3020AC0CE010E94C91C8823C9
:100D600019F08091E40202C080917E03DF91CF915F
:100D70000895AF92BF92CF92DF92EF92FF920F93BE
:100D80001F930E94A206182F0E947D22AB01BC0176
:100D90008091E302181739F48091E50280937F0374
:100DA0001092800341C08091E402181709F046C0F8
:100DB00020917F0330918003E0908103F0908203C3
:100DC000009183031091840312161306D4F48091CA
:100DD000E6029091E702AA2797FDA095BA2F5A0143
:100DE0006B01A81AB90ACA0ADB0AEA14FB040C054B
:100DF0001D0520F5215030403093800320937F0360
:100E000013C08091E8029091E902AA2797FDA0956E
:100E1000BA2F5A016B01A81AB90ACA0ADB0AEA14E6
:100E2000FB040C051D0550F440938103509382038D
:100E3000609383037093840381E001C080E01F917D
:100E40000F91FF90EF90DF90CF90BF90AF900895FB
:100E50008CE293E060E040E00E9403188CE293E0B3
:100E600060E771E00E94CE256091E1037091E2039A
:100E70008CE293E04AE050E00E94C7268CE293E0C7
:100E80006FED40E050E00E94DA268CE293E065E6E8
:100E900071E00E94CE258CE293E06DE171E00E944A
:100EA000CE2588E793E00E94B9068823D1F081E03F
:100EB00080936B038091E1039091E20301969093FC
:100EC000E2038093E10381EE93E00E94BB010E9464
:100ED0007D2260936503709366038093670390930C
:100EE00068038BE793E00E94B9068823D1F081E084
:100EF00080936B038091E1039091E20301979093BB
:100F0000E2038093E10381EE93E00E94BB010E9423
:100F10007D226093650370936603809367039093CB
:100F2000680308958CE293E060E040E00E940318BB
:100F30008CE293E06BE771E00E94CE256091DD03C7
:100F40007091DE038CE293E04AE050E00E94C726F5
:100F50008CE293E06FED40E050E00E94DA268CE2F4
:100F600093E065E671E00E94CE258CE293E06DE1AE
:100F700071E00E94CE2588E793E00E94B90688239D
:100F8000D1F081E080936B038091DD039091DE03CB
:100F900001969093DE038093DD038DED93E00E9434
:100FA000BB010E947D22609365037093660380936A
:100FB0006703909368038BE793E00E94B906882348
:100FC000D1F081E080936B038091DD039091DE038B
:100FD00001979093DE038093DD038DED93E00E94F3
:100FE000BB010E947D22609365037093660380932A
:100FF00067039093680308958CE293E060E040E01B
:101000000E9403188CE293E065E871E00E94CE250F
:101010006091D9037091DA038CE293E04AE050E0EA
:101020000E94C7268CE293E06FED40E050E00E9402
:10103000DA268CE293E065E671E00E94CE258CE230
:1010400093E06DE171E00E94CE2588E793E00E9475
:10105000B9068823D1F081E080936B038091D90396
:101060009091DA0301969093DA038093D90389ED86
:1010700093E00E94BB010E947D2260936503709300
:10108000660380936703909368038BE793E00E9465
:10109000B9068823D1F081E080936B038091D90356
:1010A0009091DA0301979093DA038093D90389ED45
:1010B00093E00E94BB010E947D22609365037093C0
:1010C0006603809367039093680308958CE293E02E
:1010D00060E040E00E9403188CE293E06FE871E06A
:1010E0000E94CE256091D5037091D6038CE293E0E7
:1010F0004AE050E00E94C7268CE293E06FED40E0AA
:1011000050E00E94DA268CE293E065E671E00E94EE
:10111000CE258CE293E06DE171E00E94CE2588E758
:1011200093E00E94B9068823D1F081E080936B039D
:101130008091D5039091D60301969093D603809326
:10114000D50385ED93E00E94BB010E947D22609350
:1011500065037093660380936703909368038BE73E
:1011600093E00E94B9068823D1F081E080936B035D
:101170008091D5039091D60301979093D6038093E5
:10118000D50385ED93E00E94BB010E947D22609310
:1011900065037093660380936703909368030895D3
:1011A0008CE293E060E040E00E9403188CE293E060
:1011B00068E971E00E94CE258CE293E060E041E0B6
:1011C0000E9403188CE293E062EA71E00E94CE254F
:1011D0006091E5037091E6038CE293E04AE050E011
:1011E0000E94C72688E793E00E94B9068823D1F0C1
:1011F00081E080936B038091E5039091E603019673
:101200009093E6038093E50385EE93E00E94BB0193
:101210000E947D2260936503709366038093670349
:10122000909368038BE793E00E94B9068823D1F07E
:1012300081E080936B038091E5039091E603019731
:101240009093E6038093E50385EE93E00E94BB0153
:101250000E947D2260936503709366038093670309
:101260009093680308950F931F93CF93DF938C019E
:101270008CE293E060E041E00E9403188CE293E08E
:101280006DEA71E00E94CE25E80144E0CC0FDD1F3D
:101290004A95E1F7CF50DC4F688179818CE293E089
:1012A0004AE050E00E94C7268881998184369105E2
:1012B000E4F488E793E00E94B9068823B1F081E066
:1012C00080936B038CE293E00E94321888819981AD
:1012D0000196998388830E947D22609365037093B1
:1012E00066038093670390936803E80134E0CC0FB2
:1012F000DD1F3A95E1F7CF50DC4F888199811816B0
:101300001906E4F48BE793E00E94B9068823B1F054
:1013100081E080936B038CE293E00E943218888115
:1013200099810197998388830E947D226093650348
:10133000709366038093670390936803DF91CF9166
:101340001F910F9108950F931F93CF93DF938C01FB
:101350008CE293E060E041E00E9403188CE293E0AD
:1013600063EB71E00E94CE25E80164E0CC0FDD1F45
:101370006A95E1F7C751DC4F6A857B858CE293E083
:101380004AE050E00E94C7268A859B8584369105F5
:10139000E4F488E793E00E94B9068823B1F081E085
:1013A00080936B038CE293E00E9432188A859B85C0
:1013B00001969B878A870E947D22609365037093C4
:1013C00066038093670390936803E80154E0CC0FB1
:1013D000DD1F5A95E1F7C751DC4F8A859B851816AA
:1013E0001906E4F48BE793E00E94B9068823B1F074
:1013F00081E080936B038CE293E00E9432188A852F
:101400009B8501979B878A870E947D226093650355
:10141000709366038093670390936803DF91CF9185
:101420001F910F9108950F931F93CF93DF938C011A
:101430008CE293E060E041E00E9403188CE293E0CC
:1014400069EB71E00E94CE25E801E4E0CC0FDD1FDE
:10145000EA95E1F7C751DC4F8E859F8560E00E94D9
:10146000020488E793E00E94B906882391F081E0A6
:1014700080936B038E859F8501969F878E870E9440
:101480007D22609365037093660380936703909356
:1014900068038BE793E00E94B9068823D1F081E0CE
:1014A00080936B03F80174E0EE0FFF1F7A95E1F76C
:1014B000E751FC4F868597850197978786870E941D
:1014C0007D22609365037093660380936703909316
:1014D0006803DF91CF911F910F9108950F931F9390
:1014E000CF93DF938C018CE293E060E041E00E94B7
:1014F00003188CE293E061EC71E00E94CE25E801D4
:1015000084E0CC0FDD1F8A95E1F7C751DC4FF8016D
:10151000B4E0EE0FFF1FBA95E1F7E351FC4F8E8167
:101520009F8120813181820F931F60E00E9402041D
:1015300088E793E00E94B9068823B9F081E08093A0
:101540006B038E819F8101969F838E83805A954085
:1015500014F01F821E820E947D22609365037093A7
:10156000660380936703909368038BE793E00E9480
:10157000B906882301F181E080936B03F801A4E0B0
:10158000EE0FFF1FAA95E1F7E751FC4F8681978187
:1015900001979783868397FF04C08FE995E097832F
:1015A00086830E947D226093650370936603809317
:1015B000670390936803DF91CF911F910F91089576
:1015C0000F931F93CF93DF938C018CE293E060E045
:1015D00041E00E9403188CE293E069EC71E00E9404
:1015E000CE25E80144E0CC0FDD1F4A95E1F7C35159
:1015F000DC4F8881998160E00E94020488E793E0D3
:101600000E94B906882321F181E080936B038881D1
:101610009981019699838883805A954014F01982A4
:101620001882F80134E0EE0FFF1F3A95E1F7E75119
:10163000FC4F868197810197978386830E947D2244
:1016400060936503709366038093670390936803C8
:101650008BE793E00E94B906882369F181E08093CB
:101660006B03F80124E0EE0FFF1F2A95E1F7E35129
:10167000FC4F8081918101979183808397FF04C003
:101680008FE995E091838083F80194E0EE0FFF1FCE
:101690009A95E1F7E751FC4F8681978101969783F0
:1016A00086830E947D226093650370936603809316
:1016B000670390936803DF91CF911F910F91089575
:1016C000CF93DF93EC018091690390916A03892B9A
:1016D00021F4CE010E94410429C08CE293E060E035
:1016E00040E00E9403188CE293E061ED71E00E94FB
:1016F000CE25BE016F5F7F4F8CE293E04AE050E061
:101700000E94C7268CE293E06AED71E00E94CE252C
:10171000FE0154E0EE0FFF1F5A95E1F7E751FC4F31
:10172000608171818CE293E00E94CE2585E793E091
:101730000E94F31C8823E9F08091690390916A0369
:10174000019690936A0380936903069724F01092A0
:101750006A03109269038CE293E00E9432180E949F
:101760007D22609365037093660380936703909373
:1017700068038091690390916A0383309105B9F001
:101780008430910534F48130910549F00297D9F401
:101790000AC08430910579F00597A9F410C0CE01F4
:1017A0000E94E00A14C0CE010E946E0A10C0CE0151
:1017B0000E94130A0CC0CE010E94330908C0CE015A
:1017C0000E94A30904C010926A0310926903DF917A
:1017D000CF9108958CE293E060E040E00E9403180E
:1017E00085E793E00E94F31C8823D1F081E0809389
:1017F0006B0380916C0390916D03019690936D0340
:1018000080936C038CE293E00E9432180E947D2248
:1018100060936503709366038093670390936803F6
:1018200080916C0390916D038130910591F082302D
:1018300091051CF4892B41F085C08230910571F02F
:10184000039709F07FC011C08CE293E06DED71E069
:1018500009C08CE293E06EEE71E004C08CE293E08C
:101860006CEF71E00E94CE2508958CE293E06AE06F
:1018700072E00E94CE2580916E0390916F038A30B2
:1018800091052CF48CE293E061E271E007C08436AC
:10189000910534F48CE293E06DE171E00E94CE2575
:1018A00060916E0370916F038CE293E04AE050E028
:1018B0000E94C7268CE293E064E172E00E94CE258C
:1018C00088E793E00E94B9068823D1F080916E03E7
:1018D00090916F03019690936F0380936E0385360A
:1018E000910524F010926F0310926E030E947D22E6
:1018F0006093650370936603809367039093680316
:101900008BE793E00E94B906882301F180916E0372
:1019100090916F03019790936F0380936E0397FFED
:1019200006C084E690E090936F0380936E030E945C
:101930007D226093650370936603809367039093A1
:101940006803089510926D0310926C0308950F932D
:101950001F93182F062F8A3030F48CE293E06DE14C
:1019600071E00E94CE258CE293E0612F4AE050E0C6
:101970000E947F268CE293E064E271E00E94CE2513
:101980000A3030F48CE293E066E271E00E94CE25EA
:101990008CE293E0602F4AE050E00E947F261F9186
:1019A0000F910895FF920F931F93182F062FF42E77
:1019B0008CE293E060E040E00E940318812F602FEA
:1019C0004F2D0E94A70C0E9485031F910F91FF903D
:1019D0000895FF920F931F93182F062FF42E8A302D
:1019E00030F48CE293E06DE171E00E94CE258CE250
:1019F00093E0612F4AE050E00E947F268CE293E062
:101A000069E172E00E94CE250A3030F48CE293E066
:101A10006DE171E00E94CE258CE293E0602F4AE0F8
:101A200050E00E947F268CE293E069E172E00E9420
:101A3000CE2589E08F1530F08CE293E066E271E00C
:101A40000E94CE256F2D70E06053784F8CE293E0BA
:101A50004AE050E00E94C7261F910F91FF90089521
:101A60002F923F924F925F926F927F928F929F92AE
:101A7000AF92BF92CF92DF92EF92FF920F931F939C
:101A8000DF93CF93CDB7DEB729970FB6F894DEBFBB
:101A90000FBECDBF99878887DB019B0194E0220FA1
:101AA000331F9A95E1F725513C4FF901F081FF83EF
:101AB000FB0184E0EE0FFF1F8A95E1F7E351FC4F35
:101AC0006080718004E0AA0FBB1F0A95E1F79D01B9
:101AD00027513C4FF9010680F781E02DFE83ED830D
:101AE000F90146845784AF50BC4F8D919C919C83E3
:101AF0008B83A285B385BA83A98324843584E88542
:101B0000F985E615F705DCF48D819E81860D971D1C
:101B1000F5E0803A9F070CF455C060EA75E00E943A
:101B20000C2A28853985821793070CF44BC0205660
:101B30003A4F39872887261537050CF443C0288586
:101B40003985261937094216530674F100D000D0A2
:101B5000B901882777FD8095982F72010027F7FC3F
:101B60000095102FAB81BC815D01CC24B7FCC094E3
:101B7000DC2CE981FA819F01442737FD4095542FE1
:101B8000ADB7BEB711962D933D934D935C931497CB
:101B900020E030E040E050E00E947D274B010F90B4
:101BA0000F900F900F9010C08D819E81860D971D14
:101BB00084199509E885F985E817F9071CF48980E7
:101BC0009A8002C08B809C80ED81FE81E60DF71D1E
:101BD000CF01841995092885398528173907A4F17B
:101BE000E217F3078CF100D000D0B2016E1B7F0B1F
:101BF000620F731F882777FD8095982F7201002749
:101C0000F7FC0095102FA981BA815D01CC24B7FCA7
:101C1000C094DC2CEB81FC819F01442737FD40956B
:101C2000542FADB7BEB711962D933D934D935C9352
:101C3000149720E030E040E050E00E947D274B0107
:101C40000F900F900F900F9080916C0390916D0307
:101C50008230910541F08330910541F0019751F4B4
:101C600089809A8007C08B809C8004C080906E031E
:101C700090906F038091700390917103181619066C
:101C80002CF40197909371038093700380917003FB
:101C900090917103892B09F041C082149304F4F5EB
:101CA0000E947D22609365037093660380936703AF
:101CB0009093680308942108310800D000D0B10146
:101CC000882777FD8095982F2FEF30E040E050E097
:101CD000EDB7FEB7218332834383548320E030E0A5
:101CE00040E050E0F4E6EF2EF12C012D112DAA2456
:101CF000BB2465010E947D279B01AC010F900F90D2
:101D00000F900F908F81B9010E9429238091E102E9
:101D10009091E2029093710380937003809170031D
:101D200090917103892B09F044C0281439040CF0F8
:101D300040C00E947D226093650370936603809388
:101D40006703909368030894211C311C00D000D0D5
:101D5000B101882777FD8095982F2FEF30E040E084
:101D600050E0ADB7BEB711962D933D934D935C9364
:101D7000149720E030E040E050E0E4E6EE2EF12C55
:101D8000012D112DAA24BB2465010E947D279B01F2
:101D9000AC010F900F900F900F908F81B9010E94AE
:101DA00029238091DF029091E00290937103809348
:101DB0007003C10129960FB6F894DEBF0FBECDBFE8
:101DC000CF91DF911F910F91FF90EF90DF90CF9017
:101DD000BF90AF909F908F907F906F905F904F904B
:101DE0003F902F9008952F923F924F925F926F9263
:101DF0007F928F929F92AF92BF92CF92DF92EF929B
:101E0000FF920F931F93CF93DF935C014B013A0135
:101E100029011801E7010FE614E0C80168E670E047
:101E20000E942519C80160E070E00E946519C80190
:101E30000E946819C80168E670E047E050E00E941F
:101E40008519C8010E942F19282F2F7722952F70EE
:101E50003AE0F32E2F9D900111248F70820FF5012F
:101E60008083C8010E942F19282F22952F702F9D43
:101E7000900111248F70820FF4018083C8010E94A9
:101E80002F19282F2F7322952F702F9D9001112429
:101E90008F70820FF3018083C8010E942F19282FB1
:101EA00022952F702F9D900111248F70820FF201C7
:101EB0008083C8010E942F19282F22952F702F9DF3
:101EC000900111248F70820FF1018083C8010E945C
:101ED0002F19282F22952F702F9D900111248F707C
:101EE000820F8883C8010E942F19282F22952F70F6
:101EF0002F9D900111248F70820FF6018083DF9156
:101F0000CF911F910F91FF90EF90DF90CF90BF90F6
:101F1000AF909F908F907F906F905F904F903F9089
:101F20002F900895AF92BF92CF92DF92EF92FF92DF
:101F30000F931F93DF93CF93CDB7DEB727970FB6DD
:101F4000F894DEBF0FBECDBF8091EA029091EB0204
:101F50009093EA038093E90385E090E09093EC038B
:101F60008093EB0380918503909186039093EE0319
:101F70008093ED038091890390918A039093F003FD
:101F80008093EF0380918D0390918E039093F203E1
:101F90008093F10380919103909192039093F403C5
:101FA0008093F3031092F6031092F503809195034A
:101FB000909196039093F8038093F7038091EC023D
:101FC0009091ED029093FA038093F9038AE090E0F8
:101FD0009093FC038093FB038091990390919A0363
:101FE0009093FE038093FD0380919D0390919E0347
:101FF000909300048093FF038091A1039091A2032A
:1020000090930204809301048091A5039091A6030C
:102010009093040480930304109206041092050424
:102020008091A9039091AA039093080480930704D8
:102030008091EE029091EF0290930A04809309043C
:102040008BE090E090930C0480930B048091AD039F
:102050009091AE0390930E0480930D048091B10390
:102060009091B2039093100480930F048091B50374
:102070009091B60390931204809311048091B90358
:102080009091BA0390931404809313041092160451
:10209000109215048091BD039091BE039093180493
:1020A000809317048091F0029091F10290931A04AA
:1020B0008093190483E090E090931C0480931B04A8
:1020C0008091C1039091C20390931E0480931D04DC
:1020D0008091C5039091C6039093200480931F04C0
:1020E0008091C9039091CA039093220480932104A4
:1020F0008091CD039091CE03909324048093230488
:1021000010922604109225048091D1039091D2035D
:1021100090932804809327048AE695E040E855E2EE
:1021200060E070E00E948B248FE694E00E948819A2
:1021300083E593E00E94871F0FE313E0C8010E942C
:10214000C51CC80160E041E00E94101CC80161E0AC
:1021500041E00E94101CC80162E041E00E94101C96
:10216000C80163E041E00E94101C8091D70261E049
:102170000E948923ACE2AA2EA3E0BA2EC50160E139
:1021800042E020E00E943A188091D70261E00E946C
:10219000AF23C50164E040E00E940318C50163E578
:1021A00071E00E94CE25C50161E041E00E94031864
:1021B000C5016BE172E00E94CE2560ED77E080E022
:1021C00090E00E948B22C5010E943218C50161E097
:1021D00040E00E940318C5016AE271E00E94CE252A
:1021E000C50162E041E00E940318C5016AE272E0A5
:1021F0000E94CE2560ED77E080E090E00E948B2287
:10220000C5010E943218CE010196BE016E5F7F4F5C
:10221000AE014D5F5F4F9E012C5F3F4F8E010B5F04
:102220001F4FF6E0EF2EF12CEC0EFD1EE7E0CE2E58
:10223000D12CCC0EDD1E0E94F30EC50160E041E002
:102240000E9403188E816D814F810E94E90CC501A7
:1022500067E372E00E94CE258C810E945B0368E8F0
:1022600073E180E090E00E948B220E947D226093C7
:102270006503709366038093670390936803C501B9
:102280000E94321827960FB6F894DEBF0FBECDBF5E
:10229000CF91DF911F910F91FF90EF90DF90CF9042
:1022A000BF90AF9008959F92AF92BF92CF92DF926E
:1022B000EF92FF920F931F93182FF62ED42E922E8B
:1022C000BFE6AB2EB4E0BB2EC50168E670E00E940D
:1022D0002519C50160E070E00E946519812F0E94F8
:1022E0008E00682FC5010E9441198F2D0E948E001B
:1022F000682FC5010E9441198D2D0E948E00682F04
:10230000C5010E944119892D0E948E00682FC501C8
:102310000E944119802F0E948E00682FC5010E94E3
:1023200041198E2D0E948E00682FC5010E9441190F
:102330008C2D0E948E00682FC5010E944119C50195
:102340000E9468191F910F91FF90EF90DF90CF903E
:10235000BF90AF909F9008959F92AF92BF92CF92FF
:10236000DF92EF92FF920F931F93CF93DF93982EFC
:10237000A62EB42EE901102FFE2CDC2C8CE293E06B
:1023800060E040E00E9403188CE293E06BE372E0AF
:102390000E94CE258CE293E060E041E00E940318A9
:1023A0008E2D602F4C2D0E94E90C8CE293E067E3A8
:1023B00072E00E94CE2588810E945B0388E793E04B
:1023C0000E94B9068823E9F091E090936B0388811D
:1023D000873018F48F5F888301C098838B2D6A2D16
:1023E000492D2881012FEF2CCD2C0E9453110E94E2
:1023F0007D226093650370936603809367039093D7
:1024000068038BE793E00E94B9068823E9F081E036
:1024100080936B038881823010F0815001C087E087
:1024200088838B2D6A2D492D2881012FEF2CCD2CEF
:102430000E9453110E947D2260936503709366038E
:102440008093670390936803DF91CF911F910F9161
:10245000FF90EF90DF90CF90BF90AF909F90089546
:102460008F929F92AF92BF92CF92DF92EF92FF92A4
:102470000F931F93CF93DF93882E962EA42E122FA7
:10248000F02EBE2CE6018CE293E060E040E00E947A
:1024900003188CE293E06BE472E00E94CE258CE29C
:1024A00093E060E041E00E9403188E2D602F488188
:1024B0000E94E90C8CE293E067E372E00E94CE2573
:1024C000812F0E945B0388E793E00E94B90688236E
:1024D000E9F091E090936B038881833618F48F5F65
:1024E000888301C098838A2D692D482D212F0F2DB7
:1024F000EB2CC8800E9453110E947D2260936503DB
:102500007093660380936703909368038BE793E06F
:102510000E94B9068823E9F081E080936B038881EB
:10252000823010F0815001C083E688838A2D692DA6
:10253000482D212F0F2DEB2CC8800E9453110E9493
:102540007D22609365037093660380936703909385
:102550006803DF91CF911F910F91FF90EF90DF9073
:10256000CF90BF90AF909F908F9008959F92AF9221
:10257000BF92CF92DF92EF92FF920F931F93CF9370
:10258000DF93982EA62EB42EF22EE8011E2DDC2C01
:102590008CE293E060E040E00E9403188CE293E05C
:1025A0006AE572E00E94CE258CE293E060E041E0B3
:1025B0000E9403188E2D68814C2D0E94E90C8CE23C
:1025C00093E067E372E00E94CE258F2D0E945B03AB
:1025D00088E793E00E94B9068823E9F091E09093A0
:1025E0006B0388818F3118F48F5F888301C09883D3
:1025F0008B2D6A2D492D2F2D0881E12ECD2C0E9487
:1026000053110E947D22609365037093660380934B
:102610006703909368038BE793E00E94B9068823D1
:10262000E9F081E080936B038881823010F0815063
:1026300001C08FE188838B2D6A2D492D2F2D0881B4
:10264000E12ECD2C0E9453110E947D2260936503E0
:10265000709366038093670390936803DF91CF9133
:102660001F910F91FF90EF90DF90CF90BF90AF90B0
:102670009F9008959F92AF92BF92CF92DF92EF9278
:10268000FF920F931F93CF93DF93982EA62EB42E15
:10269000122FD02EE701FC2C8CE293E060E040E0AA
:1026A0000E9403188CE293E068E672E00E94CE2557
:1026B0008CE293E060E041E00E9403188881602F83
:1026C0004C2D0E94E90C8CE293E067E372E00E94DB
:1026D000CE25812F0E945B0388E793E00E94B90614
:1026E0008823E9F091E090936B0388818C3018F493
:1026F0008F5F888301C098838B2D6A2D492D212FF0
:102700000D2DE880CF2C0E9453110E947D226093F2
:1027100065037093660380936703909368038BE768
:1027200093E00E94B9068823E9F081E080936B036F
:102730008881823010F0815001C08CE088838B2D1D
:102740006A2D492D212F0D2DE880CF2C0E94531189
:102750000E947D22609365037093660380936703F4
:1027600090936803DF91CF911F910F91FF90EF90AD
:10277000DF90CF90BF90AF909F9008959F92AF92BF
:10278000BF92CF92DF92EF92FF920F931F93CF935E
:10279000DF93F82EEB01142FD22EB02EAE2C9C2CF2
:1027A0008CE293E060E040E00E9403188CE293E04A
:1027B00068E772E00E94CE258CE293E060E041E0A1
:1027C0000E9403188F2D6881412F0E94A70C88E773
:1027D00093E00E94B9068823E9F081E080936B03BF
:1027E00088818B3318F48F5F888301C01882812F12
:1027F00068814F2D2D2D0B2DEA2CC92C0E945311D1
:102800000E947D2260936503709366038093670343
:10281000909368038BE793E00E94B9068823E9F060
:1028200081E080936B038881882311F0815001C07F
:102830008BE38883812F68814F2D2D2D0B2DEA2C62
:10284000C92C0E9453110E947D22609365037093EE
:1028500066038093670390936803DF91CF911F9184
:102860000F91FF90EF90DF90CF90BF90AF909F902F
:1028700008959F92AF92BF92CF92DF92EF92FF9214
:102880000F931F93CF93DF93EC01F62E142FD22ECC
:10289000B02EAE2C9C2C8CE293E060E040E00E94D5
:1028A00003188CE293E069E872E00E94CE258CE286
:1028B00093E060E041E00E94031888816F2D412F72
:1028C0000E94A70C88E793E00E94B9068823E9F0EC
:1028D00081E080936B038881873118F48F5F888350
:1028E00001C01882812F6F2D48812D2D0B2DEA2CD0
:1028F000C92C0E9453110E947D226093650370933E
:10290000660380936703909368038BE793E00E94CC
:10291000B9068823E9F081E080936B0388818823DE
:1029200011F0815001C087E18883812F6F2D48818C
:102930002D2D0B2DEA2CC92C0E9453110E947D22B3
:1029400060936503709366038093670390936803B5
:10295000DF91CF911F910F91FF90EF90DF90CF907B
:10296000BF90AF909F9008956F927F928F929F92A9
:10297000AF92BF92CF92DF92EF92FF920F931F938D
:10298000CF93DF934C015B01EA01390185E793E0C6
:102990000E94F31C8823B9F08CE293E00E94321865
:1029A0008091690390916A03019690936A038093E2
:1029B00069030E947D226093650370936603809390
:1029C0006703909368038091690390916A03833051
:1029D000910509F465C0843091055CF4813091055E
:1029E00009F43FC0823091050CF04BC0892B69F08F
:1029F00090C08530910509F46FC0853091050CF4C5
:102A00005DC0069709F085C075C08CE293E060E078
:102A100040E00E9403188CE293E068E972E00E94B3
:102A2000CE258881F5016081F40140810E94A70CC8
:102A30008CE293E060E041E00E940318F70180819E
:102A4000F8016081F60140810E94E90C8CE293E07C
:102A500067E372E00E94CE25F30180810E945B0350
:102A60005CC0CE01F5016081F4014081F301208159
:102A7000F8010081F701E080F601C0800E9439145E
:102A80004CC08881B501F4014081F3012081F80137
:102A90000081F701E080F601C0800E94BE133DC0B6
:102AA0008881F5016081F4014081F3012081F80102
:102AB0000081F601C0800E943A132FC08881F50181
:102AC0006081F4014081F3012081F701E080F6018B
:102AD000C0800E94B61221C08881F5016081F40196
:102AE0004081F3012081F8010081F701E0800E941C
:102AF000301213C08881F5016081F4014081930197
:102B0000F8010081F701E080F601C0800E94AC115D
:102B100004C010926A0310926903DF91CF911F9154
:102B20000F91FF90EF90DF90CF90BF90AF909F906C
:102B30008F907F906F900895CF92DF92EF92FF92E7
:102B40000F931F93DF93CF93CDB7DEB727970FB6C1
:102B5000F894DEBF0FBECDBF0E941F050E94BF05C7
:102B6000CE010196BE016E5F7F4FAE014D5F5F4F9C
:102B70009E012C5F3F4F8E010B5F1F4FF6E0EF2E43
:102B8000F12CEC0EFD1EE7E0CE2ED12CCC0EDD1E7E
:102B90000E94F30E8B819CE3899F600111248A813E
:102BA000C80ED11CEFEEF3E0B1E0EB2EF12C00816A
:102BB0001181C80162E070E00E940C2A8085918535
:102BC000681779072CF41016110614F471876087C2
:102BD000808591851816190614F0F186E0867096A6
:102BE00084E0EF32F80719F78091DD029091DE0260
:102BF0000197C1F4A6ECEA2EAFEFFA2EEE0EFF1EFF
:102C000000E010E0C601B8010E94300DF701918389
:102C100080830F5F1F4F80E190E0E80EF91E0430C3
:102C2000110581F7E090DB02F090DC020027F7FC51
:102C30000095102F8091650390916603A091670322
:102C4000B0916803E80EF91E0A1F1B1F0E947D2227
:102C5000E616F70608071907C0F5809165039091FD
:102C60006603A0916703B09168030097A105B105C1
:102C700061F18091DD029091DE02019781F4609113
:102C8000D9028091D70270E00E9429231092650337
:102C900010926603109267031092680316C00E9498
:102CA000DE0181E090E09093DE028093DD020E94DD
:102CB0007D2260936503709366038093670390930E
:102CC00068038CE293E00E94321882E793E00E944E
:102CD000F31C882359F180916B03882329F010920B
:102CE0006B0381E090E005C08091DD029091DE02EF
:102CF00001969093DE028093DD0210926A03109297
:102D000069036091DA028091D70270E00E94292362
:102D10000E947D226093650370936603809367032E
:102D2000909368038CE293E00E9432188091DD0258
:102D30009091DE028830910591F18930910574F40B
:102D40008330910529F1843091052CF5813091056E
:102D500009F45EC0029709F04FC017C08B3091058F
:102D600009F43EC08C3091053CF48930910591F115
:102D70000A9709F041C031C08D309105B9F18D300D
:102D800091058CF10E97C1F534C00E94380645C0FC
:102D90000E94EA0B42C004970E94600B3EC0CE0125
:102DA0000196BE016E5F7F4FAE014D5F5F4F9E018A
:102DB0002C5F3F4F8E010B5F1F4FF6E0EF2EF12C83
:102DC000EC0EFD1EE7E0CE2ED12CCC0EDD1E0E94B7
:102DD000B41423C00E94D00820C00E9466081DC001
:102DE0000E94FC071AC00E94920717C00E94280781
:102DF00014C00E94BB0411C081E090E09093DE02F9
:102E00008093DD0210926A03109269030E94DE0132
:102E10008B816A8149810E94D20C898190E0209146
:102E2000E5033091E6032817390754F08FE393E068
:102E300060E041E00E94B61B8FE393E061E009C0CF
:102E40008FE393E061E041E00E94B61B8FE393E0E3
:102E500060E040E00E94B61B27960FB6F894DEBFF4
:102E60000FBECDBFCF91DF911F910F91FF90EF90DB
:102E7000DF90CF9008950F931F938C01FC01848104
:102E800060E00E94AF2381E090E00E94E422F8011C
:102E9000848161E00E94AF2381E090E00E94E422FF
:102EA000F801848160E00E94AF2384E690E00E94F4
:102EB000E4221F910F910895CF92DF92EF92FF923B
:102EC0000F931F93CF93DF93D82EC92E282F392F1E
:102ED000C9018C01C0E0D0E0E62EFF24F801858115
:102EE00061E00E948923B7010C2E02C07595679599
:102EF0000A94E2F76170F80185810E94AF23219660
:102F00000F5F1F4FC830D10549F78D2D9C2D0E94B2
:102F10003B17DF91CF911F910F91FF90EF90DF90C2
:102F2000CF900895CF92DF92EF92FF920F931F936D
:102F3000CF93DF93D82EC92E282F392FC9018C01AA
:102F4000C0E0D0E0E62EFF24F801858161E00E9418
:102F50008923B7010C2E02C0759567950A94E2F794
:102F60006170F80185810E94AF2321960F5F1F4F8A
:102F7000C430D10549F78D2D9C2D0E943B17DF9160
:102F8000CF911F910F91FF90EF90DF90CF90089518
:102F90001F93CF93DF93EC01162F8A81642F0E9439
:102FA000AF238B818F3F19F060E00E94AF238D85A6
:102FB00084FF05C0CE01612F0E945C170EC0612FF7
:102FC00070E084E0759567958A95E1F7CE010E94DF
:102FD0009217CE01612F0E949217DF91CF911F911E
:102FE000089541E00E94C817089540E00E94C81764
:102FF0000895FC016685862F846086876C60CF010A
:103000000E94F5170895DF93CF93CDB7DEB72897C9
:103010000FB6F894DEBF0FBECDBF9C01FE01319606
:10302000ACE0B3E088E00D9001928150E1F7F90146
:103030008189841710F4482F4150E42FF0E0EE0FFF
:10304000FF1FEC0FFD1F8181680F6068C9010E949E
:10305000F51728960FB6F894DEBF0FBECDBFCF91FF
:10306000DF91089561E00E94F51780ED97E00E94DE
:10307000E4220895CF93DF93EC01423018F08D8560
:1030800088608D87498B1A8A222329F0413019F4F0
:103090008D8584608D8780E593EC0E94E4228A818F
:1030A00060E00E94AF238C8160E00E94AF238B819F
:1030B0008F3F19F060E00E94AF236D8564FD1DC055
:1030C000CE0163E00E94921784E991E10E94E4221C
:1030D000CE0163E00E94921784E991E10E94E4220C
:1030E000CE0163E00E94921786E990E00E94E422FC
:1030F000CE0162E00E94921716C06062CE010E946B
:10310000F51784E991E10E94E4226D856062CE01A9
:103110000E94F51786E990E00E94E4226D856062C6
:10312000CE010E94F5176D856062CE010E94F517F1
:1031300084E08E87CE010E94F917CE010E943218DA
:1031400082E08F87CE0166E00E94F517DF91CF9174
:1031500008956F927F928F92AF92CF92EF920F93DA
:103160001F93DF93CF93CDB7DEB73C01162F842F8B
:10317000F301428323830483E582C682A78280868B
:103180009D8591879E8592879F859387988994874F
:1031900061E00E948923F30183818F3F19F061E090
:1031A0000E948923F301848161E00E948923112315
:1031B00019F0F301158603C080E1F3018587C3018F
:1031C00060E141E020E00E943A18CF91DF911F9129
:1031D0000F91EF90CF90AF908F907F906F90089568
:1031E0008F92AF92CF92EF920F931F93CF93DF9373
:1031F000DC01362F542F722F102FAE2C8C2C86E032
:1032000093E011969C938E9300D000D0EDB7FEB75B
:103210003196CDB7DEB71982118212821382CD01A9
:1032200061E0432F2FEF052FE72EC12E0E94A91832
:103230000F900F900F900F90DF91CF911F910F91F2
:10324000EF90CF90AF908F90089581E080936E04BF
:1032500060934B0410926C0410926D040895909149
:10326000490480914A04981710F080E00895E92FEE
:10327000F0E0E75DFB4F80819F5F909349040895E4
:103280000895DF93CF930F92CDB7DEB76983809116
:103290006E04882389F080916D04803290F48091CF
:1032A0006C04E82FF0E0E45BFB4F60838F5F80935A
:1032B0006C0480936D0405C0CE01019661E00E940C
:1032C000201A0F90CF91DF9108950E94411908951F
:1032D00080914B046CE474E040916D0421E00E9405
:1032E000DD1910926C0410926D0410926E04089512
:1032F000413208F040E2862F69E274E00E94A6198C
:103300001092490480934A0408950E947819089500
:103310001092490410924A0410926C0410926D04A9
:103320000E949319089510927004449A459AE9EB0B
:10333000F0E080818E7F808380818D7F808388E430
:103340008093B80085E48093BC000895982F4132A3
:1033500010F040E030C0809170048823E1F781E0F4
:10336000809370048FEF8093DB0410929604415099
:10337000409397044F5F990F91609093710485EE8D
:103380008093BC00809170048130E1F380919604B9
:10339000841710F44091960420E030E00AC0FB014D
:1033A000E20FF31FD901AA58BB4F8C9180832F5F86
:1033B0003F4F2417A0F3842F08951F93582F122FE7
:1033C000413210F081E03AC0809170048823E1F727
:1033D00082E0809370048FEF8093DB041092960458
:1033E00040939704A6E7B4E0FB0102C081918D935E
:1033F0008E2F861B8417D0F3852F90E0880F991F9E
:103400008093710485EE8093BC00112321F080919C
:1034100070048230E1F38091DB048F3F11F480E08F
:103420000DC08091DB04803211F482E007C08091EE
:10343000DB04803311F084E001C083E01F91089524
:10344000482F613210F081E008958091700484303B
:1034500011F082E008956093B904A8E9B4E0842FE4
:103460009C01F90102C081918D938E2F841B8617D8
:10347000D0F380E008951F920F920FB60F9211249F
:103480002F933F934F935F936F937F938F939F936C
:10349000AF93BF93EF93FF938091B90090E0887F43
:1034A00090708036910509F4DCC081369105CCF529
:1034B0008832910509F47BC089329105B4F48031DA
:1034C000910509F46FC0813191053CF4009709F42E
:1034D00031C1089709F039C165C08831910509F4F7
:1034E00066C0809709F031C17DC08034910509F430
:1034F0009FC08134910544F48033910509F47DC067
:10350000C89709F022C184C08035910509F484C0B0
:103510008835910509F491C08834910509F015C1E9
:1035200098C08839910509F4FDC089399105ECF4FA
:103530008837910509F495C0893791054CF4883690
:10354000910509F48EC08037910509F0FEC089C04D
:103550008838910509F4E6C08039910509F487C0DF
:103560008038910509F0F1C082C0803B910509F4D3
:10357000B0C0813B91054CF4803A910509F489C0B3
:10358000883A910509F0E1C0A4C0803C910509F496
:10359000CDC0883C910509F4C9C0883B910509F06C
:1035A000D4C0ACC0809171048093BB00B9C090912D
:1035B000960480919704981768F490919604E92FE7
:1035C000F0E0EA58FB4F80818093BB009F5F9093AF
:1035D0009604A6C085ED8093BC008091BC0084FD5C
:1035E000FCCFB1C080E28093DB0485ED8093BC000A
:1035F0008091BC0084FDFCCFA6C080E38093DB04F7
:1036000085ED8093BC008091BC0084FDFCCF9BC005
:1036100088E38093DB048AC0809196049091BB007C
:10362000E82FF0E0EA58FB4F90838F5F8093960479
:10363000909196048091970471C080919604909126
:10364000BB00E82FF0E0EA58FB4F90838F5F809338
:10365000960485ED8093BC008091BC0084FDFCCF76
:1036600072C083E0809370041092DA0459C0809194
:10367000DA04803208F056C08091DA049091BB00E1
:10368000E82FF0E0E654FB4F90838F5F8093DA04DD
:1036900047C08091DA04803230F4E091DA04F0E03F
:1036A000E654FB4F108285ED8093BC008091BC00F6
:1036B00084FDFCCF109270046091DA04E0917404F0
:1036C000F09175048AEB94E070E009951092DA04A9
:1036D0002DC084E0809370041092B8041092B90455
:1036E000E0917204F091730409958091B9048823E4
:1036F00029F481E08093B904109298049091B80461
:10370000E92FF0E0E856FB4F80818093BB009F5F7C
:103710009093B8049091B8048091B904981710F46C
:1037200085EC01C085E88093BC000FC085EC8093D8
:10373000BC0009C01092DB0485ED8093BC00809131
:10374000BC0084FDFCCF10927004FF91EF91BF91FB
:10375000AF919F918F917F916F915F914F913F9129
:103760002F910F900FBE0F901F9018950F931F93DE
:10377000CF93DF93EC01162F042F683008F04BC075
:10378000688160628FE694E070E00E9425198FE600
:1037900094E06AE070E00E9465198FE694E00E9470
:1037A0006819688160628FE694E070E041E050E063
:1037B0000E9485198FE694E00E942F19282F01306E
:1037C00051F481E090E002C0880F991F1A95E2F74A
:1037D000122F182B0AC081E090E002C0880F991FB9
:1037E0001A95E2F7182F10951223688160628FE610
:1037F00094E070E00E9425198FE694E069E070E0A3
:103800000E9465198FE694E0612F0E9441198FE6AE
:1038100094E00E946819DF91CF911F910F91089554
:103820000F931F93CF93DF93EC01162F042F683073
:1038300008F04BC0688160628FE694E070E00E94FF
:1038400025198FE694E060E070E00E9465198FE62C
:1038500094E00E946819688160628FE694E070E0ED
:1038600041E050E00E9485198FE694E00E942F19F4
:10387000282F002351F481E090E002C0880F991FA7
:103880001A95E2F7122F182B0AC081E090E002C0CF
:10389000880F991F1A95E2F7182F10951223688147
:1038A00060628FE694E070E00E9425198FE694E054
:1038B00060E070E00E9465198FE694E0612F0E943D
:1038C00041198FE694E00E946819DF91CF911F9112
:1038D0000F910895CF93DF93EC01683008F067E013
:1038E00068838FE694E00E948819688160628FE6A1
:1038F00094E070E00E9425198FE694E060E070E0AB
:103900000E9465198FE694E06FEF70E00E946519E0
:103910008FE694E060E070E00E9465198FE694E025
:1039200060E070E00E9465198FE694E060E070E06E
:103930000E9465198FE694E060E070E00E946519CE
:103940008FE694E060E070E00E9465198FE694E0F5
:1039500060E070E00E9465198FE694E060E070E03E
:103960000E9465198FE694E060E070E00E9465199E
:103970008FE694E060E070E00E9465198FE694E0C5
:103980000E946819DF91CF91089560E00E946A1C3F
:103990000895CF93DF93EC018A8180FF02C082609B
:1039A00001C08D7F8A8388810E940724298130E0AD
:1039B0004A818217930711F44E7F01C041604A8308
:1039C0004A81242F30E0C901959587958227932756
:1039D00080FF02C0446001C04B7F4A838A818170AE
:1039E000DF91CF910895CF93DF93EC010E94C91C22
:1039F000882339F08A8190E09695879596958795EA
:103A00008170DF91CF910895FC0181E081838081F5
:103A100061E00E94AF2308951F93CF93DF93EC01E1
:103A2000862F142F688360E00E948923112311F4EC
:103A3000198203C0CE010E94041D1A828981882345
:103A400019F481E08A8301C01A82DF91CF911F911E
:103A50000895F999FECF72BD61BDF89A80B50895B9
:103A6000F999FECF1FBA72BD61BD40BD0FB6F89483
:103A7000FA9AF99A0FBE0895FC0181E09EE1918BBC
:103A8000808B75836483138210828FE190E0928330
:103A9000818308956F927F928F929F92AF92BF928F
:103AA000CF92DF92EF92FF920F931F93CF93DF930A
:103AB000FB01EA01998180E0288130E0282B392B35
:103AC000E081E23231F0E83221F0E03109F084C0E7
:103AD0004BC04C814F3329F1403420F44F3109F071
:103AE0007BC02FC04F3579F04F3709F075C0B90151
:103AF000882777FD8095982F0E94CA2820E030E023
:103B000040E85DE32EC035952795B901882777FDFC
:103B10008095982F0E94CA2820E030E040E05EE3C4
:103B200020C03595279535952795B901882777FDCC
:103B30008095982F0E94CA2820E030E040E85EE39C
:103B400010C093E0359527959A95E1F7B90188273C
:103B500077FD8095982F0E94CA2820E030E040E051
:103B60005FE30E947E2932C0EF8035952795B90129
:103B7000882777FD8095982F0E94CA2820E030E0A2
:103B800040E85EE30E94C6273B014C016E2D70E0C9
:103B90002E81621B7109882777FD8095982F0E94DE
:103BA000CA285B016C01FF2400E010E0C801B701E6
:103BB0000E94C8289B01AC01C601B5010E942F28B4
:103BC0009B01AC01C401B3010E94C7279B01AC015A
:103BD000832F942F752F00C0262F382F492F572F52
:103BE000B901CA01DF91CF911F910F91FF90EF9022
:103BF000DF90CF90BF90AF909F908F907F906F900D
:103C000008950895EF92FF920F931F938C017B010B
:103C1000FC01848195810E945D21F8018481958158
:103C2000B7010E943C21F8018481958164EB40E05A
:103C30000E940221F801848195810E946520F82E5E
:103C4000F801848195810E945D2180E0FF2009F4C4
:103C500081E01F910F91FF90EF9008950F931F93B4
:103C60008C01FC01848195810E945D21F801848191
:103C700095810E943721F8018481958164E4408117
:103C80000E940221F801818192818F33910551F0C8
:103C90008F35910561F04F9779F46EE570E080E023
:103CA00090E00EC06CEB70E080E090E009C067E748
:103CB00071E080E090E004C06EEE72E080E090E0A1
:103CC0000E948B221F910F910895CF92DF92EF9265
:103CD000FF920F931F938C016B017A01FC01848189
:103CE00095810E945D21F80184819581B6010E9431
:103CF0003C21F801848195816EEB40E00E94022115
:103D0000F801848195810E94AB20F7018083F8013E
:103D1000848195810E94AB20F7018183F801848121
:103D200095810E94AB20F7018283F80184819581FF
:103D30000E94AB20F7018383F801848195810E9462
:103D4000AB20F7018483F801848195810E94AB2028
:103D5000F7018583F801848195810E94AB20F701EA
:103D60008683F801848195810E94AB20F7018783C7
:103D7000F801848195810E94AB20F7018087F801CA
:103D8000848195810E945D211F910F91FF90EF909A
:103D9000DF90CF9008950F931F938A010E94651EB4
:103DA000C80168E00E944E2020E0F8019085891744
:103DB00009F421E0822F1F910F910895CF92DF9295
:103DC000EF92FF920F931F93DF93CF93CDB7DEB7A0
:103DD00029970FB6F894DEBF0FBECDBF8C017B01D3
:103DE0006E010894C11CD11CA6010E94CB1E882321
:103DF00029F460E070E08EEF92EC05C0C801B701D5
:103E0000A6010E944A1D29960FB6F894DEBF0FBE88
:103E1000CDBFCF91DF911F910F91FF90EF90DF9079
:103E2000CF9008950F931F938B01CB0167E00E9401
:103E30004E2020E0F8019781891709F421E0822FB4
:103E40001F910F910895EF92FF920F931F93CF93BD
:103E5000DF93EC017B01042F8C819D810E943C202B
:103E600010E007C0CE01B7010E94121F8823A9F0FD
:103E70000AC08C819D81B7010E949721882329F077
:103E8000101759F4EFCF81E001C080E0DF91CF91AE
:103E90001F910F91FF90EF9008951F5F0117A8F3F6
:103EA000E8CFEF92FF920F931F93DF93CF93CDB79D
:103EB000DEB728970FB6F894DEBF0FBECDBF7C01EA
:103EC000462F8E010F5F1F4FB8010E94231FC701AD
:103ED000B8010E94DE1E28960FB6F894DEBF0FBE12
:103EE000CDBFCF91DF911F910F91FF90EF9008957B
:103EF0000E94511F26E636E646EE5FE30E947E29C9
:103F000020E030E040E052E40E94C72708959F92ED
:103F1000AF92BF92CF92DF92EF92FF920F931F93D7
:103F2000DF93CF93CDB7DEB761970FB6F894DEBFBE
:103F30000FBECDBF8C01FC01848195810E943C2085
:103F4000F80113827E010894E11CF11CE9E0AE2E19
:103F5000B12CAC0EBD1E7FE7C72ED12C99249394B3
:103F60002DC0C801B7010E94121F882339F1F80142
:103F70008081882341F4C801B7010E94021E882372
:103F800011F0F8019082C801B701A5010E94651ED9
:103F90008981803121F4F801D282C1820BC08D85E4
:103FA000282F30E0F801818192818217930714F461
:103FB00032832183F80183818F5F8383F8018481B9
:103FC0009581B7010E949721882359F661960FB613
:103FD000F894DEBF0FBECDBFCF91DF911F910F913F
:103FE000FF90EF90DF90CF90BF90AF909F9008959B
:103FF000DC011A966C931A97462F50E0CA018A5733
:104000009F4FFC0124911B962C931B9746565F4FA4
:10401000FA0184911C968C931C9730E0220F331F79
:10402000F901EE58FF4F859194911E969C938E93C3
:104030001D97F901E458FF4F8591949150969C93F8
:104040008E931F97F901E859FF4F859194915296ED
:104050009C938E9351978FEF18968C93189719967F
:104060001C92199787E0FD01E80FF11D108288234B
:1040700011F08150F8CF0895DC018FEF18968C93E2
:10408000189719961C92199787E0FD01E80FF11D0A
:104090001082882311F08150F8CF0895FC0140E090
:1040A00030E05CE80EC0208190E0822F83273695B7
:1040B00080FD35279F5F983011F02695F6CF4F5F32
:1040C0003196461780F3832F0895FF920F931F9325
:1040D0008C01DC015196ED91FC91529780811C96E8
:1040E0009C911C97892B80831D96ED91FC911E97C6
:1040F00090811C968C9180958923808381E090E04B
:104100000E94E422D8015196ED91FC915297908142
:104110001C968C9180958923808385E090E00E9495
:10412000E422D8011F96ED91FC9150972081FF2445
:1041300030E01C968C9190E028233923232B11F03A
:10414000FF24F39482E390E00E94E4228F2D1F91DC
:104150000F91FF900895EF92FF920F931F93CF93CB
:10416000DF937C0101E010E0C0E0D0E0C7010E94D5
:1041700065208111102B000F2196C830D105B1F7B1
:10418000812FDF91CF911F910F91FF90EF900895B4
:10419000EF92FF920F931F937C01062FDC01519643
:1041A000ED91FC91529780811C969C911C97892BD4
:1041B00080831D96ED91FC911E9790811C968C91A9
:1041C000809589238083017010E0F801EA5EFC4F3E
:1041D000808190E00E94E422D7011D96ED91FC9130
:1041E0001E9780811C969C91892B80830C5E1C4FAE
:1041F000F801808190E00E94E4221F910F91FF90CE
:10420000EF900895CF92DF92EF92FF920F931F935A
:10421000CF93DF938C01E42EFF24F394C0E0D0E031
:10422000C62EDD2460E08F2D90E08C219D21892B0E
:1042300009F061E0C8010E94C820FF0C2196C83037
:10424000D10581F7EE2051F4F801828560E00E94EB
:104250008923F801828560E00E94AF23DF91CF912E
:104260001F910F91FF90EF90DF90CF9008956CEC2D
:1042700040E00E9402210895EF92FF920F931F9356
:10428000CF93DF938C017B0165E540E00E94022122
:10429000C0E0D0E0F701EC0FFD1FC801608140E0F5
:1042A0000E9402212196C830D105A1F7DF91CF915C
:1042B0001F910F91FF90EF9008951F93CF93DF937D
:1042C000EC018A8560E00E9489231DE7115010F4FB
:1042D00010E028C082E090E00E94E4228A850E94DB
:1042E0000724892B99F38A8560E00E94AF238A8591
:1042F00061E00E94892384EF91E00E94E4228A8594
:1043000060E00E94892381E490E00E94E4228A8593
:104310000E94072410E0892B09F411E08AEE91E055
:104320000E94E422812FDF91CF911F9108958F92F7
:104330009F92AF92BF92DF92EF92FF920F931F93E3
:10434000CF93DF93EC015B018985882309F080C05E
:10435000CE010E945D21882309F47AC0CE0160EF6E
:1043600040E00E940221DD24DA94EE24E39400E090
:1043700010E021E0822E912CCE010E946520F82EC3
:10438000CE010E946520282F502F569556955695A0
:10439000C80187709070B40102C0660F771F8A95BC
:1043A000E2F7462FFF2029F0222309F051C09F2D6C
:1043B00021C0222339F58885992787FD9095081714
:1043C000190711F4D8860EC0081719076CF4262FA8
:1043D00030E0FE01E50FF11D808190E028233923B4
:1043E000232B19F091E003C0088790E0EE24D02E33
:1043F000992341F0FE01E50FF11D8081842B80831C
:10440000F92E07C0FE01E50FF11D4095808148237C
:104410004083CE016F2D0E94C8200F5F1F4F0034D4
:10442000110509F0A9CFEE2011F081E0898720E085
:1044300030E0F501E20FF31FDE01A20FB31F8C91F4
:1044400080832F5F3F4F2830310599F781E001C00D
:1044500080E0DF91CF911F910F91FF90EF90DF905F
:10446000BF90AF909F908F9008951F920F920FB6BC
:104470000F9211242F933F938F939F93AF93BF93EA
:104480008091E1049091E204A091E304B091E404EE
:104490003091E5040196A11DB11D232F2D5F2D370D
:1044A00020F02D570196A11DB11D2093E5048093A6
:1044B000E1049093E204A093E304B093E4048091B8
:1044C000DD049091DE04A091DF04B091E004019638
:1044D000A11DB11D8093DD049093DE04A093DF0441
:1044E000B093E004BF91AF919F918F913F912F9135
:1044F0000F900FBE0F901F9018958FB7F8942091D2
:10450000E1043091E2044091E3045091E4048FBF50
:10451000B901CA0108959B01AC017FB7F89480915D
:10452000DD049091DE04A091DF04B091E00466B553
:10453000A89B05C06F3F19F00196A11DB11D7FBF5B
:10454000BA2FA92F982F8827860F911DA11DB11D65
:1045500062E0880F991FAA1FBB1F6A95D1F7BC01A3
:104560002DC0FFB7F8948091DD049091DE04A091F6
:10457000DF04B091E004E6B5A89B05C0EF3F19F059
:104580000196A11DB11DFFBFBA2FA92F982F882713
:104590008E0F911DA11DB11DE2E0880F991FAA1F6A
:1045A000BB1FEA95D1F7861B970B885E9340C8F234
:1045B000215030404040504068517C4F211531051A
:1045C0004105510571F60895019739F0880F991F3B
:1045D000880F991F02970197F1F70895789484B591
:1045E000826084BD84B5816084BD85B5826085BDEF
:1045F00085B5816085BDEEE6F0E0808181608083D5
:10460000E1E8F0E0108280818260808380818160B7
:104610008083E0E8F0E0808181608083E1EBF0E07E
:10462000808184608083E0EBF0E080818160808322
:10463000EAE7F0E08081846080838081826080830B
:104640008081816080838081806880831092C10036
:1046500008951F93CF93DF93182FEB0161E00E9421
:104660008923209709F44AC0CF3FD10509F449C0F6
:10467000E12FF0E0E255FF4F84918330C1F08430A8
:1046800028F4813051F08230B1F50CC0863019F138
:10469000873049F1843079F514C084B5806884BDD1
:1046A000C7BD33C084B5806284BDC8BD2EC08091B3
:1046B0008000806880938000D0938900C093880038
:1046C00024C080918000806280938000D0938B0012
:1046D000C0938A001AC08091B00080688093B000B7
:1046E000C093B30012C08091B00080628093B0008C
:1046F000C093B4000AC0C038D1051CF4812F60E01B
:1047000002C0812F61E00E94AF23DF91CF911F9102
:104710000895482F50E0CA0186569F4FFC0124910E
:104720004A575F4FFA0184918823C1F0E82FF0E0E7
:10473000EE0FFF1FE859FF4FA591B491662341F496
:104740009FB7F8948C91209582238C939FBF0895F6
:104750009FB7F8948C91822B8C939FBF0895482F1C
:1047600050E0CA0182559F4FFC012491CA01865630
:104770009F4FFC0134914A575F4FFA01949199235E
:1047800009F444C0222351F1233071F0243028F47D
:104790002130A1F0223011F514C02630B1F02730BD
:1047A000C1F02430D9F404C0809180008F7703C019
:1047B000809180008F7D8093800010C084B58F77BA
:1047C00002C084B58F7D84BD09C08091B0008F7711
:1047D00003C08091B0008F7D8093B000E92FF0E09E
:1047E000EE0FFF1FEE58FF4FA591B491662341F4E1
:1047F0009FB7F8948C91309583238C939FBF089535
:104800009FB7F8948C91832B8C939FBF0895682F4A
:1048100070E0CB0182559F4FFC012491CB0186565D
:104820009F4FFC0144916A577F4FFB01949199235C
:1048300019F420E030E03CC0222351F1233071F024
:10484000243028F42130A1F0223011F514C0263094
:10485000B1F02730C1F02430D9F404C08091800039
:104860008F7703C0809180008F7D8093800010C07F
:1048700084B58F7702C084B58F7D84BD09C08091D7
:10488000B0008F7703C08091B0008F7D8093B0001F
:10489000892F90E0880F991F84589F4FFC01A591A4
:1048A000B4918C9120E030E0842311F021E030E0DD
:1048B000C90108951F920F920FB60F9211242F93E2
:1048C0003F934F938F939F93EF93FF934091C60035
:1048D000E0916605F091670531969F012F77307062
:1048E000319780916805909169052817390739F04B
:1048F000EA51FB4F40833093670520936605FF9193
:10490000EF919F918F914F913F912F910F900FBEFB
:104910000F901F901895CF93DF93EC019A01AB0194
:10492000E885F985203081EE380780E0480780E08F
:10493000580709F449C081E090E00A8802C0880F56
:10494000991F0A94E2F7808360E079E08DE390E0BC
:104950000E94412A2150304040405040CA01B901D4
:1049600022E030E040E050E00E94412AEC81FD81ED
:104970003083EE81FF812083EA85FB85208141E041
:1049800050E0CA010E8402C0880F991F0A94E2F712
:10499000282B2083EA85FB852081CA010F8402C071
:1049A000880F991F0A94E2F7282B2083EA85FB855C
:1049B0008081088802C0440F551F0A94E2F7842BB7
:1049C0008083DF91CF910895108220E130E0CECF37
:1049D000DC011296ED91FC911397E058FF4F219165
:1049E000319180819181281B390B2F773070C9015B
:1049F0000895DC011296ED91FC911397EE57FF4F4D
:104A00002081318192918291E058F0408217930782
:104A100019F42FEF3FEF05C0E20FF31F8081282F1D
:104A200030E0C9010895DC011296ED91FC911397D5
:104A3000DF01AE57BF4F2D913C911197E058FF4FCA
:104A400080819181E058F0408217930719F42FEF8D
:104A50003FEF0BC0E20FF31F80812F5F3F4F2F7797
:104A600030702D933C93282F30E0C9010895DC016C
:104A70001296ED91FC911397EE57FF4F8081918133
:104A8000929382930895FC01A085B18521898C9130
:104A900090E0022E02C0959587950A94E2F780FF78
:104AA000F6CF0484F585E02D608308958CE193E0D2
:104AB00090936B0580936A0586EE94E090936D0564
:104AC00080936C0585EC90E090936F0580936E0564
:104AD00084EC90E0909371058093700580EC90E0F9
:104AE000909373058093720581EC90E09093750527
:104AF0008093740586EC90E090937705809376051B
:104B000084E08093780583E08093790587E0809343
:104B10007A0585E080937B0581E080937C0508958C
:104B20000E94EE220E94920F0E949C15FDCF0F93CF
:104B30001F93CF93DF938C01EB0109C02196D8011D
:104B4000ED91FC910190F081E02DC80109956881FB
:104B50006623A1F7DF91CF911F910F910895EF92F6
:104B6000FF920F931F93CF93DF938C017B01EA0198
:104B70000CC0D7016D917D01D801ED91FC910190A0
:104B8000F081E02DC80109952197209791F7DF91D9
:104B9000CF911F910F91FF90EF900895DC01ED915F
:104BA000FC910280F381E02D099508952F923F92A8
:104BB0004F925F926F927F928F929F92AF92BF922D
:104BC000CF92DF92EF92FF920F931F93DF93CF93D9
:104BD000CDB7DEB7A0970FB6F894DEBF0FBECDBF3E
:104BE0001C016A017B01411551056105710549F4FC
:104BF00040E350E060E070E020E030E00E94912669
:104C000056C0882499245401422E552466247724C2
:104C100001E010E00C0F1D1F080D191DC701B601A2
:104C2000A30192010E941F2AF80160830894811C4D
:104C3000911CA11CB11CC701B601A30192010E94E5
:104C40001F2AC901DA016C017D01C114D104E104FC
:104C5000F104F1F681E0E82EF12CEC0EFD1EE80CDB
:104C6000F91C3E010894611C711CD501C401019717
:104C7000A109B1096C01C818D90816C0F601EE0DDA
:104C8000FF1D40814A3010F4405D01C0495C55274A
:104C900047FD5095652F752FC10120E030E00E943F
:104CA00091260894E108F1086E147F0439F7A09664
:104CB0000FB6F894DEBF0FBECDBFCF91DF911F912D
:104CC0000F91FF90EF90DF90CF90BF90AF909F90AB
:104CD0008F907F906F905F904F903F902F900895AE
:104CE000DC012115310541F4ED91FC910190F08139
:104CF000E02D642F099508950E94D6250895EF921E
:104D0000FF920F931F939A01E62EFF2400E010E01C
:104D1000B801A7010E9470261F910F91FF90EF909C
:104D20000895EF92FF920F931F93CF93DF93EC01BF
:104D30007A018B012115310541F4E881F981019057
:104D4000F081E02D642F09951BC02A303105B1F4A4
:104D500077FF10C04DE250E060E070E020E030E00E
:104D60000E94912610950095F094E094E11CF11CAE
:104D7000011D111DCE01B801A7012AE00E94D62510
:104D8000DF91CF911F910F91FF90EF900895EF92D7
:104D9000FF920F931F937B019A010027F7FC009568
:104DA000102FB801A7010E9491261F910F91FF902B
:104DB000EF900895EF92FF920F931F93E62E9A01C2
:104DC000FF24E7FCF0940F2D1F2DB801A7010E94CE
:104DD00091261F910F91FF90EF9008959F92AF92AF
:104DE000BF92CF92DF92EF92FF920F931F93CF93D8
:104DF000DF93EC017A018B01922ECB01BA0120E006
:104E000030E040E050E00E942B2888236CF4CE0173
:104E10004DE250E060E070E020E030E00E9491263A
:104E200017FB109517F9109520E030E040E05FE3A4
:104E3000AA240BC0CA01B90120E030E040E251E4ED
:104E40000E942F289B01AC01A394A91498F3C801D8
:104E5000B7010E94C7275B016C010E949C287B015F
:104E60008C01CE01B801A7012AE030E00E94702633
:104E7000992029F0CE0165ED72E00E94CE25C8018F
:104E8000B7010E94C8289B01AC01C601B5010E9470
:104E9000C62722C020E030E040E251E40E947E2993
:104EA0007B018C010E9497285B016C01CC24B7FC2C
:104EB000C094DC2CCE01B601A5012AE030E00E94AE
:104EC0009126C601B5010E94CA289B01AC01C80108
:104ED000B7010E94C6279A949920E1F6DF91CF91FD
:104EE0001F910F91FF90EF90DF90CF90BF90AF9008
:104EF0009F9008950E94EE2608952F923F924F9220
:104F00005F926F927F928F929F92AF92BF92CF9259
:104F1000DF92EF92FF920F931F93DF93CF93CDB762
:104F2000DEB73B014C0119012A016D897E898F8909
:104F3000988D6A197B098C099D09621A730A840A83
:104F4000950AA40193010E94E129E218F3080409DB
:104F50001509A80197010E94412A2A0D3B1D4C1DED
:104F60005D1DB901CA01CF91DF911F910F91FF9093
:104F7000EF90DF90CF90BF90AF909F908F907F90F9
:104F80006F905F904F903F902F9008955058BB279F
:104F9000AA270ED075C166D130F06BD120F031F464
:104FA0009F3F11F41EF45BC10EF4E095E7FB51C185
:104FB000E92F77D180F3BA17620773078407950743
:104FC00018F071F49EF58FC10EF4E0950B2EBA2FF8
:104FD000A02D0B01B90190010C01CA01A0011124FF
:104FE000FF27591B99F0593F50F4503E68F11A16AB
:104FF000F040A22F232F342F4427585FF3CF46953C
:1050000037952795A795F0405395C9F77EF41F165D
:10501000BA0B620B730B840BBAF09150A1F0FF0F27
:10502000BB1F661F771F881FC2F70EC0BA0F621F13
:10503000731F841F48F4879577956795B795F79503
:105040009E3F08F0B3CF9395880F08F09927EE0F95
:10505000979587950895D9D008F481E008950CD0EC
:105060000FC107D140F0FED030F021F45F3F19F0BE
:10507000F0C0511139C1F3C014D198F39923C9F389
:105080005523B1F3951B550BBB27AA27621773074E
:10509000840738F09F5F5F4F220F331F441FAA1F02
:1050A000A9F333D00E2E3AF0E0E830D091505040C2
:1050B000E695001CCAF729D0FE2F27D0660F771F70
:1050C000881FBB1F261737074807AB07B0E809F052
:1050D000BB0B802DBF01FF2793585F4F2AF09E3FE7
:1050E000510568F0B6C000C15F3FECF3983EDCF3B9
:1050F000869577956795B795F7959F5FC9F7880F60
:10510000911D9695879597F90895E1E0660F771FB1
:10511000881FBB1F621773078407BA0720F0621B42
:10512000730B840BBA0BEE1F88F7E095089504D03B
:105130006894B111D9C00895BCD088F09F5790F001
:10514000B92F9927B751A0F0D1F0660F771F881FAC
:10515000991F1AF0BA95C9F712C0B13081F0C3D0C7
:10516000B1E00895C0C0672F782F8827B85F39F065
:10517000B93FCCF3869577956795B395D9F73EF40B
:1051800090958095709561957F4F8F4F9F4F0895B3
:10519000E89409C097FB3EF49095809570956195D1
:1051A0007F4F8F4F9F4F9923A9F0F92F96E9BB2787
:1051B0009395F695879577956795B795F111F8CF03
:1051C000FAF4BB0F11F460FF1BC06F5F7F4F8F4F6E
:1051D0009F4F16C0882311F096E911C0772321F064
:1051E0009EE8872F762F05C0662371F096E8862FFC
:1051F00070E060E02AF09A95660F771F881FDAF753
:10520000880F9695879597F90895990F0008550F7F
:10521000AA0BE0E8FEEF16161706E807F907C0F03C
:1052200012161306E407F50798F0621B730B840B44
:10523000950B39F40A2661F0232B242B252B21F41E
:1052400008950A2609F4A140A6958FEF811D811DBE
:10525000089597F99F6780E870E060E008959FEFF8
:1052600080EC089500240A941616170618060906FD
:10527000089500240A9412161306140605060895CC
:10528000092E0394000C11F4882352F0BB0F40F454
:10529000BF2B11F460FF04C06F5F7F4F8F4F9F4F94
:1052A000089557FD9058440F551F59F05F3F71F016
:1052B0004795880F97FB991F61F09F3F79F087957D
:1052C0000895121613061406551FF2CF4695F1DF06
:1052D00008C0161617061806991FF1CF8695710596
:1052E000610508940895E894BB2766277727CB01CA
:1052F00097F908958ADF08F48FEF08950BD0C0CF97
:10530000B1DF28F0B6DF18F0952309F0A2CFA7CFC0
:105310001124EACFC6DFA0F3959FD1F3950F50E09B
:10532000551F629FF001729FBB27F00DB11D639F57
:10533000AA27F00DB11DAA1F649F6627B00DA11DFD
:10534000661F829F2227B00DA11D621F739FB00DA3
:10535000A11D621F839FA00D611D221F749F332713
:10536000A00D611D231F849F600D211D822F762FAC
:105370006A2F11249F5750408AF0E1F088234AF0A9
:10538000EE0FFF1FBB1F661F771F881F91505040F5
:10539000A9F79E3F510570F05CCFA6CF5F3FECF3BD
:1053A000983EDCF3869577956795B795F795E795E1
:1053B0009F5FC1F7FE2B880F911D9695879597F9F2
:1053C0000895629FD001739FF001829FE00DF11D4F
:1053D000649FE00DF11D929FF00D839FF00D749F6F
:1053E000F00D659FF00D9927729FB00DE11DF91F1B
:1053F000639FB00DE11DF91FBD01CF011124089578
:10540000991B79E004C0991F961708F0961B881F16
:105410007A95C9F78095089597FB092E07260AD03B
:1054200077FD04D049D006D000201AF4709561951C
:105430007F4F0895F6F7909581959F4F0895A1E2CB
:105440001A2EAA1BBB1BFD010DC0AA1FBB1FEE1FFE
:10545000FF1FA217B307E407F50720F0A21BB30B49
:10546000E40BF50B661F771F881F991F1A9469F7C5
:1054700060957095809590959B01AC01BD01CF0121
:10548000089597FB092E05260ED057FD04D0D7DFCF
:105490000AD0001C38F450954095309521953F4F27
:1054A0004F4F5F4F0895F6F79095809570956195F1
:1054B0007F4F8F4F9F4F0895AA1BBB1B51E107C021
:1054C000AA1FBB1FA617B70710F0A61BB70B881F94
:1054D000991F5A95A9F780959095BC01CD01089523
:1054E000EE0FFF1F0590F491E02D0994F894FFCF83
:1054F00054696D6572202000416C6C204D6178000C
:10550000416C6C204D696E00416C6C2000200025C0
:10551000002020003A0030002D004C454420436F0D
:105520006E74726F6C6C657200436F6E7472696238
:1055300075746F7273004F726967696E616C204297
:10554000793A0053616C7479446F670054656D70EB
:1055500020313A2000460054656D7020323A200018
:1055600048656174204F66663A2000486561742082
:105570004F6E3A200046616E204F66663A20004624
:10558000616E204F6E3A2000576176654D616B6504
:1055900072005365636F6E64733A2020004D696E2C
:1055A0003A20004D61783A2000466164653A202037
:1055B00000456E643A2020200053746172743A20D2
:1055C000004368616E6E656C20003A2000436F6E88
:1055D00074726F6C2062792054696D6572004C455D
:1055E000443A20416C6C204D617820004C45443A8F
:1055F00020416C6C204D696E2000416C6C2053651D
:10560000743A200025202020002F0041717561721E
:1056100069756D537570706C790056657273696F3A
:105620006E20322E316100202D20005365742044FD
:105630006179206F66205765656B0053657420445F
:105640006174653A20596561720053657420446144
:1056500074653A204461790053657420446174652F
:105660003A204D6F6E7468005365742054696D65FF
:105670003A204D696E757465005365742054696DE8
:10568000653A20486F757200436C6F636B3A202057
:10569000004C454431004C454432004C45443300F5
:1056A0004C454434003F3F3F0053756E004D6F6ED4
:1056B000005475650057656400546875004672694A
:1056C00000536174002E00060019FF102701000826
:1056D00000040001020519000A00A102A602AB02A3
:1056E000B002B502B902BD02C102C502C902CD02B3
:1056F000D10200000000F1179725AF2500004000FF
:105700001400540005373705000000004325972595
:0A571000AF25E8241325F9243725FE
:00000001FF
